:100000000C9461000C947E000C947E000C947E0095
:100010000C947E000C947E000C947E000C947E0068
:100020000C947E000C947E000C947E000C947E0058
:100030000C947E000C947E000C947E000C947E0048
:100040000C947E000C947E000C947E000C947E0038
:100050000C947E000C947E000C947E000C947E0028
:100060000C947E000C947E0008000000BE9224498F
:10007000123EABAAAA2ABECDCCCC4C3E00000080DA
:10008000BEABAAAAAA3E00000000BF000000803F4D
:100090000000000000084178D3BB4387D1133D190D
:1000A0000E3CC3BD4282AD2B3E68EC8276BED98F3A
:1000B000E1A93E4C80EFFFBE01C4FF7F3F0000007E
:1000C000000011241FBECFEFD8E0DEBFCDBF11E08E
:1000D000A0E0B1E0EAEDFAE102C005900D92AA328B
:1000E000B107D9F711E0AAE2B1E001C01D92AB322D
:1000F000B107E1F70E9454080C946B0D0C940000BA
:10010000FC0180818860808381E090E00197F1F7B5
:100110008081877F808308952BB1982F9C7F922BBD
:100120009BB92BB1982F936092239BB948B190E073
:10013000880F991F9C0126703327422B48B928B19C
:10014000896F9F6F282328B90895EF92FF921F931C
:10015000CF93DF931F92CDB7DEB7182F842F579818
:10016000E12EF92EF70120812061208320812F7D4F
:1001700020830000F7012081286020830000000018
:1001800039B1F7012081277F208320812F7E2083B2
:1001900037FDE6CF579A2081262B208320912A0114
:1001A000222329F099830E948C00998101C08BB988
:1001B000812F0E948000F70180818F7C80830F90C7
:1001C000DF91CF911F91FF90EF9008950F931F93B0
:1001D000CF93DF9381FF0AC09AB19C6F9AB997B110
:1001E000966097B991E090932A0106C09FEF9AB963
:1001F0001092C10010922A0180FF09C084B1886367
:1002000084B985B1877C85B985E290E008C087B163
:10021000886387B988B1877C88B988E290E0909339
:1002200001018093000180912A01882321F080E35D
:100230000E948C0002C080E38BB9C0910001D09174
:100240000101CE010E94800080EA91E40197F1F75C
:10025000CE010E94800000E213E0C8010197F1F78F
:10026000CE010E948000C8010197F1F748E360E0E9
:10027000CE010E94A50048E060E0CE010E94A500EA
:1002800041E060E0CE010E94A50046E060E0CE01C2
:100290000E94A5004CE060E0CE010E94A5001092F3
:1002A0000201DF91CF911F910F91089541E060E02D
:1002B00080910001909101010C94A500CF92DF92F2
:1002C000EF92FF920F931F93CF93DF938C01E090F7
:1002D0000001F090010140E860E0C7010E94A50024
:1002E000E801680180E1C80ED11C08C060E2C701C6
:1002F0000E94A5008E01CC15DD0531F08E014991DB
:10030000442311F04A3091F7F80180818823C9F025
:100310008A3011F40F5F1F4F40EC60E0C7010E946C
:10032000A500E801005F1F4F07C060E2C7010E94FF
:10033000A500C017D10729F04991442311F04A3094
:10034000A1F7DF91CF911F910F91FF90EF90DF9078
:10035000CF900895CF93DF93C82F2091020127FDFE
:1003600055C080528F3508F58091000190910101B0
:10037000203129F440EC60E00E94A5000AC022234D
:1003800011F0203234F040E860E00E94A5001092A5
:1003900002014C2F60E280910001909101010E94C6
:1003A000A500809102018F5F05C0CA3031F4203171
:1003B00044F480E1809302012CC0CC3029F40E94E7
:1003C00056011092020125C0C83019F5222309F107
:1003D00021502093020180910001909101012F3062
:1003E00011F44FE801C040E160E00E94A500C09117
:1003F0000001D091010140E260E2CE010E94A5001F
:1004000040E160E0CE010E94A50003C02FEF3FEF66
:1004100002C020E030E0C901DF91CF910895A0E053
:10042000B0E0E5E1F2E00C94D5083C01CB01EA0133
:10043000D3012C91223008F43EC1FB0130813230CF
:1004400008F436C1243071F4343009F034C1119607
:100450002C918181281709F42EC1B3E06B2EB1E0F5
:100460007B2E29C1343009F423C1323091F422307B
:1004700009F021C128E0F301DA0101900D922A95DB
:10048000E1F7DB0111968C91F30191818923898336
:1004900011C1223009F40CC1D3011296ED91FC91E7
:1004A0001397DB0112966D917C911397D3011496EB
:1004B0000D911D912D913C911797DC011496CD90D3
:1004C000DD90ED90FC901797AF01461B570BDA01BA
:1004D00057FF04C0AA27BB27A41BB50BA032B10548
:1004E0000CF065C0141615067CF5B701A6010A2E9E
:1004F00004C076956795579547950A94D2F7812C55
:10050000912C5401839404C0880C991CAA1CBB1C18
:10051000AA95D2F7B1E08B1A9108A108B1088C20F6
:100520009D20AE20BF20C12CD12C7601C394811414
:100530009104A104B10419F4C12CD12C7601C42A70
:10054000D52AE62AF72A3EC0452BE1F1EA0FFB1F28
:10055000B901A8010A2E04C076956795579547956D
:100560000A94D2F7812C912C5401839404C0880CF6
:10057000991CAA1CBB1CAA95D2F7A1E08A1A910863
:10058000A108B10880229122A222B32201E010E04A
:1005900020E030E081149104A104B10419F400E0DA
:1005A00010E09801042B152B262B372B0BC06E1750
:1005B0007F0724F4C12CD12C760104C0FB0100E09C
:1005C00010E09801D30111964C91DC0111968C91A9
:1005D000481709F442C0442349F0D701C601801BE3
:1005E000910BA20BB30B8C019D0104C00C191D09CA
:1005F0002E093F0937FD04C01982FB83EA830BC033
:1006000081E08983FB83EA833095209510950195DD
:100610001F4F2F4F3F4F0C831D832E833F830DC0F1
:10062000880F991FAA1FBB1F8C839D83AE83BF8336
:100630008A819B8101979B838A838C819D81AE8176
:10064000BF818C019D0101501109210931090F3F22
:100650001F4F2F4F3F4320F30BC04983FB83EA8397
:100660000C0D1D1D2E1D3F1D0C831D832E833F83EE
:1006700083E088830C811D812E813F8137FF1AC062
:10068000D901C80181709927AA27BB2736952795DC
:1006900017950795802B912BA22BB32B8C839D83D1
:1006A000AE83BF838A819B8101969B838A8302C02C
:1006B0003C0101C03E01C301CDB7DEB7EEE00C94B2
:1006C000F108A0E2B0E0E7E6F3E00C94E1086D8FFA
:1006D0007E8F8F8F98A3298F3A8F4B8F5C8FBE01AF
:1006E0006F5E7F4FCE014D960E94B106BE01675FDF
:1006F0007F4FCE0149960E94B106AE014F5F5F4F1A
:10070000BE01675F7F4FCE0141960E940F020E949B
:10071000F005A096E2E00C94FD08A0E2B0E0E3E969
:10072000F3E00C94E1086D8F7E8F8F8F98A3298F53
:100730003A8F4B8F5C8FBE016F5E7F4FCE014D961F
:100740000E94B106BE01675F7F4FCE0149960E94AD
:10075000B1068A8591E089278A87AE014F5F5F4F96
:10076000BE01675F7F4FCE0141960E940F020E943B
:10077000F005A096E2E00C94FD08A0E2B0E0E3EC06
:10078000F3E00C94D3086D8F7E8F8F8F98A3298F01
:100790003A8F4B8F5C8FBE016F5E7F4FCE014D96BF
:1007A0000E94B106BE01675F7F4FCE0149960E944D
:1007B000B1069989923008F412C08985823008F414
:1007C0001AC0943021F4823009F4B4C008C08430D7
:1007D00021F4923009F4AEC00EC0923051F481E0A1
:1007E0002A899A85291301C080E08A8BCE0141961F
:1007F000A3C0823051F481E02A899A85291301C06F
:1008000080E08A87CE01099697C08D889E88AF8840
:10081000B88C0D851E852F853889E0E2F0E080E0F8
:1008200090E0DC01C12CD12C760140E050E0BA010F
:1008300080FE18C0400F511F621F731F8C0D9D1D3D
:10084000AE1DBF1D412C512C32014394401751075E
:100850006207730718F0412C512C3201840D951D4D
:10086000A61DB71DCC0CDD1CEE1CFF1C37FF02C003
:100870006894C0F8000F111F221F331FB694A7946D
:10088000979487943197A1F62B893C89EB85FC8559
:100890002E0F3F1F2E5F3F4F3C832B8321E0EA89C1
:1008A0003A85E31301C020E02A83EB81FC810CC070
:1008B00080FF05C076956795579547957068B69502
:1008C000A795979587953196B7FDF2CF9F010CC0FC
:1008D000880F991FAA1FBB1F77FD8160440F551F0A
:1008E000661F771F215031090097A105E0E4BE077C
:1008F00078F32B833C838C019D010F7711272227EE
:100900003327003411052105310559F487FD09C04D
:10091000452B462B472B29F0805C9F4FAF4FBF4F95
:1009200080788D839E83AF83B88783E08983CE01EF
:10093000019602C083E091E00E94F005A096E0E1FC
:100940000C94EF08A8E1B0E0E8EAF4E00C94DB08CE
:100950006D8B7E8B8F8B988F298B3A8B4B8B5C8B1F
:10096000BE01675F7F4FCE0145960E94B106BE0172
:100970006F5F7F4FCE0141960E94B10699859230FC
:1009800008F475C08981823008F474C02A853A81E0
:1009900023272A87943011F0923019F4981367C0F6
:1009A0006CC0843039F41D861E861F86188A1C860A
:1009B0001B8604C0823029F484E08987CE01099621
:1009C0005EC08B859C852B813C81821B930B9C8711
:1009D0008B874D855E856F857889CD80DE80EF8041
:1009E000F8844C155D056E057F0538F4440F551FDE
:1009F000661F771F01979C878B87EFE1F0E000E08F
:100A000010E020E030E480E090E0DC014C155D0572
:100A10006E057F0540F0802B912BA22BB32B4C1938
:100A20005D096E097F093695279517950795440F3F
:100A3000551F661F771F319749F78C019D010F776E
:100A4000112722273327003411052105310559F4D8
:100A500087FD09C0452B462B472B29F0805C9F4F13
:100A6000AF4FBF4F80788D879E87AF87B88BCE0101
:100A7000099605C0CE01019602C083E091E00E9474
:100A8000F0056896E8E00C94F708A8E0B0E0EBE425
:100A9000F5E00C94DF0823E029838B019C010027FB
:100AA00037FD0395112722273327402F0A8361152D
:100AB00071058105910519F482E0898335C02EE125
:100AC00030E03C832B83442371F06115710581056F
:100AD00020E8920771F1002711279801061B170BD8
:100AE000280B390B02C08B019C01C901B8010E947F
:100AF00008090197181619062CF00D831E832F8301
:100B0000388712C0082E04C0000F111F221F331F88
:100B10000A94D2F70D831E832F8338872EE130E0AD
:100B2000281B390B3C832B83CE0101960E94F005D4
:100B300004C060E070E080E09FEC2896E4E00C9454
:100B4000FB08ACE0B0E0E7EAF5E00C94DF08698769
:100B50007A878B879C87BE016F5F7F4FCE01099696
:100B60000E94B1068981823091F1823080F1843017
:100B700041F48A81882331F100E010E020E030E880
:100B800029C02B813C8137FD22C02F3131058CF7E4
:100B90008EE190E0821B930B0D811E812F813885A1
:100BA00004C036952795179507958A95D2F78A81BF
:100BB000882381F030952095109501951F4F2F4F78
:100BC0003F4F08C00FEF1FEF2FEF3FE703C000E0DC
:100BD00010E09801B801C9012C96E4E00C94FB08E0
:100BE0000F931F93CF93FC014481558166817781D8
:100BF000C1818081823020F460618FEF90E0A3C0DA
:100C0000843009F49BC0823009F492C0411551052B
:100C10006105710509F48FC02281338122388FEF7D
:100C200038070CF057C0E2E8FFEFE21BF30BEA31A4
:100C3000F10564F58A019B010E2E04C036952795B7
:100C4000179507950A94D2F781E090E0A0E0B0E014
:100C500004C0880F991FAA1FBB1FEA95D2F70197FE
:100C6000A109B10984239523A623B72341E050E0CD
:100C700060E070E0892B8A2B8B2B19F440E050E068
:100C8000BA01402B512B622B732B03C040E050E084
:100C9000BA01DB01CA018F779927AA27BB278034C5
:100CA0009105A105B10539F447FF09C0405C5F4FCC
:100CB0006F4F7F4F04C0415C5F4F6F4F7F4F81E0AC
:100CC00090E041155105610520E4720748F580E088
:100CD00090E026C0203831058CF5DB01CA018F7702
:100CE0009927AA27BB2780349105A105B10539F4BE
:100CF00047FF09C0405C5F4F6F4F7F4F04C0415CAE
:100D00005F4F6F4F7F4F77FD04C0C90181589F4FE0
:100D100007C07695679557954795C90180589F4FAD
:100D200097E076956795579547959A95D1F70BC0BB
:100D300080E090E005C080E090E005C08FEF90E09B
:100D400040E050E0BA01982F9695C0FB97F9362FF6
:100D500080FB37F9642F752F832FCF911F910F914F
:100D60000895CF92DF92EF92DC01FB01CC901196B7
:100D7000DC90119712968C9112973FE7E32EE822B0
:100D80006E2DA60170E0982F991F9927991F139631
:100D90002C91822F880F892B90E027FB222720F9A6
:100DA0002183009729F5411551056105710511F45D
:100DB00082E027C082E89FEF9383828327E0440F7D
:100DC000551F661F771F2A95D1F783E0808309C0DE
:100DD000440F551F661F771F82819381019793836C
:100DE000828341155105610580E4780788F320C0AE
:100DF0008F3F910579F4411551056105710519F48D
:100E000084E0808319C0E4FE03C081E0808310C0C9
:100E100010820EC08F5791099383828383E0808371
:100E200087E0440F551F661F771F8A95D1F77064BE
:100E30004483558366837783EF90DF90CF90089546
:100E40008F709927209164002E7F20936400883052
:100E500091054CF421E030E0082E01C0220F0A94E5
:100E6000EAF720937E0027E820937A0010927B0017
:100E70008830910511F488EC01C0806480937C0077
:100E8000089580917A00806480937A0080917A003E
:100E900086FDFCCF80917C0085FF0DC0809178009D
:100EA00082958695869583702091790094E0299F9C
:100EB0009001112406C08091780090917900392F1B
:100EC00020E0282BC90108954F925F926F927F9284
:100ED0008F929F92AF92BF9225E0AC01249FC001F8
:100EE000259F900D11246FEF73E00E94A9088827B9
:100EF00077FD8095982F0E9445052B013C0120E04D
:100F000030EE42E955E4752D972D0E94BD034B014B
:100F10005C0120E030E040EA50E4642D752D862D20
:100F2000972D0E94A2049B01AC0160E070E080E874
:100F30009FE30E948D0320E030E040EA50E40E94ED
:100F4000BD039B01AC01C501B4010E94A20420E0D5
:100F500030EE42E955E40E94A2040E9465094B016B
:100F60005C012DE435EB46E859E30E94BD032DE01A
:100F70003FEC4BE55BE30E9461032B013C012EEA51
:100F80003FE340E356E3C501B4010E94BD03A50160
:100F900094010E94BD039B01AC01C301B2010E94F8
:100FA00061032B013C012DEC33E041E953E3C50122
:100FB000B4010E94BD03A50194010E94BD03A501D7
:100FC00094010E94BD039B01AC01C301B2010E94C8
:100FD00061039B01AC0160E070E080E89FE30E9448
:100FE000A20423E333E948E853E40E948D03BF9051
:100FF000AF909F908F907F906F905F904F900895EB
:101000008F929F92AF92BF92EF92FF92CF93DF9316
:10101000CDB7DEB7C456D1090FB6F894DEBF0FBE08
:10102000CDBF4B015C010E94A1057B01882777FDA4
:101030008095982F0E9445059B01AC01C501B40124
:101040000E948D0320E030E04AE754E40E94BD0393
:101050000E94A1057F936F93FF92EF928BE091E046
:101060009F938F931F9284E68F93EE24E394F12C49
:10107000EC0EFD1EFF92EF920E9423090FB6F8942A
:10108000DEBF0FBECDBFC701CC59DF4F0FB6F894FE
:10109000DEBF0FBECDBFDF91CF91FF90EF90BF902D
:1010A000AF909F908F900895CF93DF93CDB7DEB729
:1010B000A1970FB6F894DEBF0FBECDBF80E090E0E1
:1010C0000E94200780E090E00E94E60091E1892ED6
:1010D00091E0992E2AE0622E38E1A32E31E0B32E62
:1010E0004EE1C42E41E0D42E51E2752EEE24E3945D
:1010F000F12CEC0EFD1E0E944107182F092F0E94B3
:1011000064070E9400089F938F939F928F921F9273
:101110006F920F931F93BF92AF92DF92CF921F9265
:101120007F92FF92EF920E9423090E945601C7010D
:101130000E945E012FEF81EE94E0215080409040AC
:10114000E1F700C000000FB6F894DEBF0FBECDBFC0
:10115000D2CF97FB072E16F4009407D077FD09D065
:101160000E94BD0807FC05D03EF4909581959F4FE5
:101170000895709561957F4F0895AA1BBB1B51E19F
:1011800007C0AA1FBB1FA617B70710F0A61BB70BF7
:10119000881F991F5A95A9F780959095BC01CD019C
:1011A00008952F923F924F925F926F927F928F920B
:1011B0009F92AF92BF92CF92DF92EF92FF920F93E6
:1011C0001F93CF93DF93CDB7DEB7CA1BDB0B0FB6F0
:1011D000F894DEBF0FBECDBF09942A8839884888AD
:1011E0005F846E847D848C849B84AA84B984C88443
:1011F000DF80EE80FD800C811B81AA81B981CE0F3A
:10120000D11D0FB6F894DEBF0FBECDBFED0108951E
:101210000E94110984FF0895CB010E941109805F8B
:101220000895AA27992329F4A85F982B11F480E147
:101230000895903118F4AD5F9295A395990FE8F752
:101240008A2F99270895EF92FF92CF93DF93CDB71E
:10125000DEB72E970FB6F894DEBF0FBECDBFED8878
:10126000FE888F89988D26E02C83FA82E98297FF89
:1012700002C080E090E801979E838D83CE014B965B
:10128000AC01698D7A8DCE0101960E94060A4D81CE
:101290005E8157FD0AC02F813885421753070CF431
:1012A0009A01F701E20FF31F10822E960FB6F89401
:1012B000DEBF0FBECDBFDF91CF91FF90EF900895BD
:1012C0000EF08BC398C3689482C3E4D3C8F3992308
:1012D000D1F3C6F3DF93CF931F930F93FF92C92FE0
:1012E000DD2788232AF02197660F771F881FDAF7FA
:1012F00020E030E040E85FEB9FE3883920F0803E5B
:1013000030F021968F77DDD9E8E6F0E003C0D9D937
:10131000E5E9F0E073D38B01BE01EC01FB2E6F57C2
:1013200071097595771F880B990BAFDB28E132E7C0
:1013300041E35FE314D0AF2D9801AE01FF900F9110
:101340001F91CF91DF91F0D28CC37DD328F082D34F
:1013500018F0952309F03BC34EC31124B6C392D3B2
:10136000A0F3959FD1F3950F50E0551F629FF001B8
:10137000729FBB27F00DB11D639FAA27F00DB11D11
:10138000AA1F649F6627B00DA11D661F829F22279A
:10139000B00DA11D621F739FB00DA11D621F839F21
:1013A000A00D611D221F749F3327A00D611D231FF7
:1013B000849F600D211D822F762F6A2F11249F5745
:1013C00050408AF0E1F088234AF0EE0FFF1FBB1F68
:1013D000661F771F881F91505040A9F79E3F510507
:1013E00070F0F5C272C35F3FECF3983EDCF3869574
:1013F00077956795B795F795E7959F5FC1F7FE2BB2
:10140000880F911D9695879597F90895ACE0B0E007
:10141000ECE0FAE00C94D1086C015B017A01FC016C
:1014200017821682838181FFC1C166246394712C67
:101430006C0E7D1EF6019381F50193FD859193FF5E
:1014400081915F01882309F4ADC1853239F493FDA0
:10145000859193FF81915F01853229F4B60190E077
:101460000E94F30BE7CF512C10E020E02032A8F4CB
:101470008B3261F028F4803251F0833271F40BC06A
:101480008D3239F0803349F4216028C02260246015
:1014900025C0286023C0206121C027FD27C0382F28
:1014A00030533A3078F426FF06C0FAE05F9E300DE4
:1014B0001124532E13C04AE0149F300D1124132F12
:1014C00020620CC08E3221F426FD6CC1206406C05F
:1014D0008C3611F4206802C0883641F4F50193FD82
:1014E000859193FF81915F018111C0CF982F955411
:1014F000933018F09052933030F4F4E0EF0EF11C7A
:101500004FE349830EC0833631F0833779F083355A
:1015100009F05DC023C0F7018081898342E0E40EB9
:10152000F11C44244394512C430115C0170152E08F
:10153000250E311CF7018080918026FF03C0652DA8
:1015400070E002C06FEF7FEFC4012C870E94E80BB0
:101550002C0171012C85022F0F7717C01701F2E0C3
:101560002F0E311CF7018080918026FF03C0652D6E
:1015700070E002C06FEF7FEFC4012C870E94DD0B8B
:101580002C012C85022F0068710103FD1CC006C0D0
:10159000B60180E290E00E94F30B1150812F90E0A1
:1015A00048165906A8F30FC0F40107FD859107FFFF
:1015B00081914F01B60190E00E94F30B111111507F
:1015C000F1E04F1A51084114510471F7E8C0843614
:1015D00011F0893651F5F70127FF07C0608171814D
:1015E0008281938144E050E008C060817181882746
:1015F00077FD8095982F42E050E0E40EF51E3FE61F
:10160000432E422297FF09C0909580957095619571
:101610007F4F8F4F9F4F50E8452A2AE030E0A301CB
:101620000E94290C882E861840C0022F853721F48D
:101630000F7E2AE030E01FC0097F8F36A1F020F432
:10164000883509F0AFC00BC0803721F0883709F02A
:10165000A9C001C0006104FF09C0046007C024FFE5
:1016600008C0066006C028E030E005C020E130E098
:1016700002C020E132E0F70107FF07C060817181FD
:101680008281938144E050E006C06081718180E0F6
:1016900090E042E050E0E40EF51EA3010E94290C08
:1016A000882E86188FE7482E402246FE0BC0042D58
:1016B0000E7F851450F444FE0AC042FC08C0042D7D
:1016C0000E7E05C0982C042D03C0982C01C0952CCB
:1016D00004FF0DC0FE01E80DF11D8081803311F47F
:1016E000097E09C002FF06C09394939404C0802F22
:1016F000867809F0939403FD12C000FF0DC0582CAA
:10170000911650F4510E5918912E06C0B60180E280
:1017100090E00E94F30B93949116C0F304C09116CD
:1017200010F4191901C010E004FF10C0B60180E3E5
:1017300090E00E94F30B02FF1EC001FF03C088E58A
:1017400090E002C088E790E0B6010CC0802F867858
:1017500091F001FD02C080E201C08BE207FD8DE245
:10176000B60190E00E94F30B06C0B60180E390E062
:101770000E94F30B5A948514C0F38A94F301E80D88
:10178000F11DB601808190E00E94F30B8110F5CF2E
:1017900006C0B60180E290E00E94F30B11501111D7
:1017A000F8CF48CEF6012681378102C02FEF3FEFF8
:1017B000C9012C96E2E10C94ED08FC010590615002
:1017C00070400110D8F7809590958E0F9F1F089557
:1017D000FC016150704001900110D8F78095909500
:1017E0008E0F9F1F0895CF92DF92EF92FF926C01B0
:1017F0007B01DB0113968C9181FD04C0CC24CA943B
:10180000DC2C21C082FF10C0FB012681378184813E
:101810009581281739078CF40190F081E02DC19251
:10182000DB01ED93FC9309C0DB011896ED91FC916F
:1018300019978C2D0995892B09F7F70186819781D6
:10184000019697838683C601FF90EF90DF90CF903B
:101850000895FA01AA27283051F1203181F1E89446
:101860006F936E7F6E5F7F4F8F4F9F4FAF4FB1E093
:101870003ED0B4E03CD0670F781F891F9A1FA11D8E
:10188000680F791F8A1F911DA11D6A0F711D811D8F
:10189000911DA11D20D009F468943F912AE0269F54
:1018A00011243019305D3193DEF6CF010895462FB3
:1018B0004770405D4193B3E00FD0C9F7F6CF462F94
:1018C0004F70405D4A3318F0495D31FD40524193FD
:1018D00002D0A9F7EACFB4E0A695979587957795BA
:1018E0006795BA95C9F700976105710508959B0141
:1018F000AC010A2E06945795479537952795BA95CA
:10190000C9F7620F731F841F951FA01D08959BD0F8
:1019100030F0A0D020F031F49F3F11F41EF46BC0E2
:101920000EF4E095E7FB53C0E92FACD080F3BA1773
:10193000620773078407950718F071F49EF5C4C019
:101940000EF4E0950B2EBA2FA02D0B01B9019001DA
:101950000C01CA01A0011124FF27591B99F0593F1E
:1019600050F4503E68F11A16F040A22F232F342F66
:101970004427585FF3CF469537952795A795F040B4
:101980005395C9F77EF41F16BA0B620B730B840BC9
:10199000BAF09150A1F0FF0FBB1F661F771F881F81
:1019A000C2F70EC0BA0F621F731F841F48F48795D9
:1019B00077956795B795F7959E3F08F0B3CF9395C8
:1019C000880F08F09927EE0F97958795089597F956
:1019D0009F6780E870E060E008959F3F31F091508C
:1019E00020F4879577956795B795880F911D969503
:1019F000879597F908959FEF80EC0895DF93CF9333
:101A00001F930F93FF92EF92DF927B018C016894FA
:101A100005C0DA2EEF01A3DCFE01E894A591259123
:101A2000359145915591AEF3EF017EDFFE019701AF
:101A3000A801DA9479F7DF90EF90FF900F911F9152
:101A4000CF91DF91089500240A9416161706180600
:101A50000906089500240A941216130614060506B2
:101A60000895092E0394000C11F4882352F0BB0F43
:101A700040F4BF2B11F460FF04C06F5F7F4F8F4FA6
:101A80009F4F089557FD9058440F551F59F05F3FE1
:101A900071F04795880F97FB991F61F09F3F79F090
:101AA00087950895121613061406551FF2CF469512
:101AB000F1DF08C0161617061806991FF1CF869594
:101AC0007105610508940895E894BB276627772778
:0A1AD000CB0197F90895F894FFCFB9
:101ADA002800FF000000000000000025692E25698B
:101AEA000052323A203D20004130203D200025732B
:0A1AFA00256925632573257300009C
:00000001FF
